{
  "_format": "hh-sol-artifact-1",
  "contractName": "LendingCircle",
  "sourceName": "contracts/LendingCircle.sol",
  "abi": [
    {
      "inputs": [
        {
          "internalType": "address[]",
          "name": "_admins",
          "type": "address[]"
        }
      ],
      "stateMutability": "nonpayable",
      "type": "constructor"
    },
    {
      "anonymous": false,
      "inputs": [
        {
          "indexed": true,
          "internalType": "uint256",
          "name": "circleId",
          "type": "uint256"
        },
        {
          "indexed": true,
          "internalType": "address",
          "name": "participant",
          "type": "address"
        }
      ],
      "name": "ApprovedJoinRequest",
      "type": "event"
    },
    {
      "anonymous": false,
      "inputs": [
        {
          "indexed": true,
          "internalType": "uint256",
          "name": "circleId",
          "type": "uint256"
        },
        {
          "indexed": false,
          "internalType": "string",
          "name": "name",
          "type": "string"
        },
        {
          "indexed": false,
          "internalType": "address",
          "name": "creator",
          "type": "address"
        },
        {
          "indexed": false,
          "internalType": "uint256",
          "name": "contributionAmount",
          "type": "uint256"
        },
        {
          "indexed": false,
          "internalType": "enum LendingCircle.PeriodType",
          "name": "periodType",
          "type": "uint8"
        },
        {
          "indexed": false,
          "internalType": "uint256",
          "name": "numberOfPeriods",
          "type": "uint256"
        },
        {
          "indexed": false,
          "internalType": "uint256",
          "name": "adminFeePercentage",
          "type": "uint256"
        }
      ],
      "name": "CircleCreated",
      "type": "event"
    },
    {
      "anonymous": false,
      "inputs": [
        {
          "indexed": true,
          "internalType": "uint256",
          "name": "circleId",
          "type": "uint256"
        },
        {
          "indexed": false,
          "internalType": "uint256",
          "name": "contributionAmount",
          "type": "uint256"
        },
        {
          "indexed": false,
          "internalType": "uint256",
          "name": "numberOfPeriods",
          "type": "uint256"
        },
        {
          "indexed": false,
          "internalType": "uint256",
          "name": "adminFee",
          "type": "uint256"
        }
      ],
      "name": "CircleEnded",
      "type": "event"
    },
    {
      "anonymous": false,
      "inputs": [
        {
          "indexed": true,
          "internalType": "uint256",
          "name": "circleId",
          "type": "uint256"
        }
      ],
      "name": "CircleStarted",
      "type": "event"
    },
    {
      "anonymous": false,
      "inputs": [
        {
          "indexed": true,
          "internalType": "uint256",
          "name": "circleId",
          "type": "uint256"
        },
        {
          "indexed": true,
          "internalType": "address",
          "name": "participant",
          "type": "address"
        },
        {
          "indexed": false,
          "internalType": "uint256",
          "name": "contributionAmount",
          "type": "uint256"
        },
        {
          "indexed": false,
          "internalType": "uint256",
          "name": "adminFee",
          "type": "uint256"
        }
      ],
      "name": "Contributed",
      "type": "event"
    },
    {
      "anonymous": false,
      "inputs": [
        {
          "indexed": true,
          "internalType": "uint256",
          "name": "circleId",
          "type": "uint256"
        },
        {
          "indexed": true,
          "internalType": "address",
          "name": "participant",
          "type": "address"
        },
        {
          "indexed": false,
          "internalType": "uint256",
          "name": "contributionAmount",
          "type": "uint256"
        },
        {
          "indexed": false,
          "internalType": "uint256",
          "name": "adminLateFee",
          "type": "uint256"
        }
      ],
      "name": "ContributedLate",
      "type": "event"
    },
    {
      "anonymous": false,
      "inputs": [
        {
          "indexed": true,
          "internalType": "address",
          "name": "participant",
          "type": "address"
        },
        {
          "indexed": false,
          "internalType": "uint256",
          "name": "circleId",
          "type": "uint256"
        },
        {
          "indexed": false,
          "internalType": "uint256",
          "name": "periodsPaid",
          "type": "uint256"
        },
        {
          "indexed": false,
          "internalType": "uint256",
          "name": "numberOfPeriods",
          "type": "uint256"
        },
        {
          "indexed": false,
          "internalType": "uint256",
          "name": "currentPeriodNumber",
          "type": "uint256"
        },
        {
          "indexed": false,
          "internalType": "uint256",
          "name": "contributionAmount",
          "type": "uint256"
        },
        {
          "indexed": false,
          "internalType": "enum LendingCircle.PeriodType",
          "name": "periodType",
          "type": "uint8"
        }
      ],
      "name": "DidntPayAfterReceivingPayout",
      "type": "event"
    },
    {
      "anonymous": false,
      "inputs": [
        {
          "indexed": true,
          "internalType": "uint256",
          "name": "circleId",
          "type": "uint256"
        },
        {
          "indexed": true,
          "internalType": "uint256",
          "name": "periodNumber",
          "type": "uint256"
        },
        {
          "indexed": false,
          "internalType": "address",
          "name": "recipient",
          "type": "address"
        },
        {
          "indexed": false,
          "internalType": "uint256",
          "name": "amount",
          "type": "uint256"
        }
      ],
      "name": "DistributedFunds",
      "type": "event"
    },
    {
      "anonymous": false,
      "inputs": [
        {
          "indexed": false,
          "internalType": "uint256",
          "name": "circleId",
          "type": "uint256"
        },
        {
          "indexed": true,
          "internalType": "address",
          "name": "participant",
          "type": "address"
        },
        {
          "indexed": false,
          "internalType": "uint256",
          "name": "totalContributionSoFar",
          "type": "uint256"
        },
        {
          "indexed": false,
          "internalType": "uint256",
          "name": "currentPeriodNumber",
          "type": "uint256"
        },
        {
          "indexed": false,
          "internalType": "uint256",
          "name": "contributionAmount",
          "type": "uint256"
        }
      ],
      "name": "LateOnContribution",
      "type": "event"
    },
    {
      "anonymous": false,
      "inputs": [
        {
          "indexed": true,
          "internalType": "uint256",
          "name": "circleId",
          "type": "uint256"
        },
        {
          "indexed": true,
          "internalType": "address",
          "name": "requestor",
          "type": "address"
        }
      ],
      "name": "RequestedToJoin",
      "type": "event"
    },
    {
      "anonymous": false,
      "inputs": [
        {
          "indexed": true,
          "internalType": "uint256",
          "name": "circleId",
          "type": "uint256"
        },
        {
          "indexed": true,
          "internalType": "address",
          "name": "participant",
          "type": "address"
        },
        {
          "indexed": false,
          "internalType": "uint256",
          "name": "amount",
          "type": "uint256"
        }
      ],
      "name": "WithdrawnJoinRequestDeposit",
      "type": "event"
    },
    {
      "inputs": [
        {
          "internalType": "uint256",
          "name": "",
          "type": "uint256"
        }
      ],
      "name": "admins",
      "outputs": [
        {
          "internalType": "address",
          "name": "",
          "type": "address"
        }
      ],
      "stateMutability": "view",
      "type": "function"
    },
    {
      "inputs": [
        {
          "internalType": "uint256",
          "name": "circleId",
          "type": "uint256"
        },
        {
          "internalType": "address",
          "name": "participantAddress",
          "type": "address"
        }
      ],
      "name": "approveJoinRequest",
      "outputs": [],
      "stateMutability": "nonpayable",
      "type": "function"
    },
    {
      "inputs": [
        {
          "internalType": "uint256",
          "name": "circleId",
          "type": "uint256"
        }
      ],
      "name": "checkEveryonePaid",
      "outputs": [],
      "stateMutability": "nonpayable",
      "type": "function"
    },
    {
      "inputs": [],
      "name": "circleCount",
      "outputs": [
        {
          "internalType": "uint256",
          "name": "",
          "type": "uint256"
        }
      ],
      "stateMutability": "view",
      "type": "function"
    },
    {
      "inputs": [
        {
          "internalType": "uint256",
          "name": "",
          "type": "uint256"
        }
      ],
      "name": "circles",
      "outputs": [
        {
          "internalType": "uint256",
          "name": "id",
          "type": "uint256"
        },
        {
          "internalType": "string",
          "name": "name",
          "type": "string"
        },
        {
          "internalType": "uint256",
          "name": "contributionAmount",
          "type": "uint256"
        },
        {
          "internalType": "enum LendingCircle.PeriodType",
          "name": "periodType",
          "type": "uint8"
        },
        {
          "internalType": "uint256",
          "name": "periodDuration",
          "type": "uint256"
        },
        {
          "internalType": "uint256",
          "name": "numberOfPeriods",
          "type": "uint256"
        },
        {
          "internalType": "uint256",
          "name": "adminFeePercentage",
          "type": "uint256"
        },
        {
          "internalType": "uint256",
          "name": "currentPeriodNumber",
          "type": "uint256"
        },
        {
          "internalType": "uint256",
          "name": "nextDueTime",
          "type": "uint256"
        },
        {
          "internalType": "uint256",
          "name": "contributorsThisPeriod",
          "type": "uint256"
        }
      ],
      "stateMutability": "view",
      "type": "function"
    },
    {
      "inputs": [
        {
          "internalType": "uint256",
          "name": "circleId",
          "type": "uint256"
        }
      ],
      "name": "contribute",
      "outputs": [],
      "stateMutability": "payable",
      "type": "function"
    },
    {
      "inputs": [
        {
          "internalType": "string",
          "name": "name",
          "type": "string"
        },
        {
          "internalType": "uint256",
          "name": "contributionAmount",
          "type": "uint256"
        },
        {
          "internalType": "uint256",
          "name": "numberOfPeriods",
          "type": "uint256"
        },
        {
          "internalType": "uint256",
          "name": "adminFeePercentage",
          "type": "uint256"
        },
        {
          "internalType": "enum LendingCircle.PeriodType",
          "name": "periodType",
          "type": "uint8"
        }
      ],
      "name": "createCircle",
      "outputs": [
        {
          "internalType": "uint256",
          "name": "",
          "type": "uint256"
        }
      ],
      "stateMutability": "nonpayable",
      "type": "function"
    },
    {
      "inputs": [
        {
          "internalType": "uint256",
          "name": "circleId",
          "type": "uint256"
        }
      ],
      "name": "getCircleDetails",
      "outputs": [
        {
          "internalType": "uint256",
          "name": "id",
          "type": "uint256"
        },
        {
          "internalType": "string",
          "name": "name",
          "type": "string"
        },
        {
          "internalType": "uint256",
          "name": "contributionAmount",
          "type": "uint256"
        },
        {
          "internalType": "enum LendingCircle.PeriodType",
          "name": "periodType",
          "type": "uint8"
        },
        {
          "internalType": "uint256",
          "name": "periodDuration",
          "type": "uint256"
        },
        {
          "internalType": "uint256",
          "name": "numberOfPeriods",
          "type": "uint256"
        },
        {
          "internalType": "uint256",
          "name": "adminFeePercentage",
          "type": "uint256"
        },
        {
          "internalType": "uint256",
          "name": "currentPeriodNumber",
          "type": "uint256"
        },
        {
          "internalType": "uint256",
          "name": "nextDueTime",
          "type": "uint256"
        },
        {
          "internalType": "uint256",
          "name": "contributorsThisPeriod",
          "type": "uint256"
        }
      ],
      "stateMutability": "view",
      "type": "function"
    },
    {
      "inputs": [
        {
          "internalType": "uint256",
          "name": "circleId",
          "type": "uint256"
        }
      ],
      "name": "getDebtors",
      "outputs": [
        {
          "internalType": "address payable[]",
          "name": "",
          "type": "address[]"
        }
      ],
      "stateMutability": "view",
      "type": "function"
    },
    {
      "inputs": [
        {
          "internalType": "uint256",
          "name": "circleId",
          "type": "uint256"
        }
      ],
      "name": "getDistributions",
      "outputs": [
        {
          "internalType": "address[]",
          "name": "",
          "type": "address[]"
        }
      ],
      "stateMutability": "view",
      "type": "function"
    },
    {
      "inputs": [
        {
          "internalType": "uint256",
          "name": "circleId",
          "type": "uint256"
        }
      ],
      "name": "getEligibleRecipients",
      "outputs": [
        {
          "internalType": "address payable[]",
          "name": "",
          "type": "address[]"
        }
      ],
      "stateMutability": "view",
      "type": "function"
    },
    {
      "inputs": [
        {
          "internalType": "uint256",
          "name": "circleId",
          "type": "uint256"
        }
      ],
      "name": "getJoinQueue",
      "outputs": [
        {
          "internalType": "address payable[]",
          "name": "",
          "type": "address[]"
        }
      ],
      "stateMutability": "view",
      "type": "function"
    },
    {
      "inputs": [
        {
          "internalType": "uint256",
          "name": "circleId",
          "type": "uint256"
        },
        {
          "internalType": "address",
          "name": "debtorAddress",
          "type": "address"
        }
      ],
      "name": "getLatePaymentDue",
      "outputs": [
        {
          "internalType": "uint256",
          "name": "",
          "type": "uint256"
        }
      ],
      "stateMutability": "view",
      "type": "function"
    },
    {
      "inputs": [
        {
          "internalType": "uint256",
          "name": "circleId",
          "type": "uint256"
        },
        {
          "internalType": "address",
          "name": "participantAddress",
          "type": "address"
        }
      ],
      "name": "getOutstandingPayments",
      "outputs": [
        {
          "internalType": "uint256",
          "name": "",
          "type": "uint256"
        }
      ],
      "stateMutability": "view",
      "type": "function"
    },
    {
      "inputs": [
        {
          "internalType": "uint256",
          "name": "circleId",
          "type": "uint256"
        },
        {
          "internalType": "address",
          "name": "participant",
          "type": "address"
        }
      ],
      "name": "getPeriodsPaid",
      "outputs": [
        {
          "internalType": "uint256",
          "name": "",
          "type": "uint256"
        }
      ],
      "stateMutability": "view",
      "type": "function"
    },
    {
      "inputs": [
        {
          "internalType": "address",
          "name": "userAddress",
          "type": "address"
        }
      ],
      "name": "getUserCircleIds",
      "outputs": [
        {
          "internalType": "uint256[]",
          "name": "",
          "type": "uint256[]"
        }
      ],
      "stateMutability": "view",
      "type": "function"
    },
    {
      "inputs": [
        {
          "internalType": "address",
          "name": "user",
          "type": "address"
        }
      ],
      "name": "getUserCircleStats",
      "outputs": [
        {
          "internalType": "uint256",
          "name": "totalCirclesCompleted",
          "type": "uint256"
        },
        {
          "internalType": "uint256",
          "name": "totalEligibleValue",
          "type": "uint256"
        },
        {
          "internalType": "uint256",
          "name": "totalDebtorValue",
          "type": "uint256"
        }
      ],
      "stateMutability": "view",
      "type": "function"
    },
    {
      "inputs": [
        {
          "internalType": "uint256",
          "name": "circleId",
          "type": "uint256"
        },
        {
          "internalType": "address",
          "name": "participant",
          "type": "address"
        }
      ],
      "name": "isDebtor",
      "outputs": [
        {
          "internalType": "bool",
          "name": "",
          "type": "bool"
        }
      ],
      "stateMutability": "view",
      "type": "function"
    },
    {
      "inputs": [
        {
          "internalType": "uint256",
          "name": "circleId",
          "type": "uint256"
        }
      ],
      "name": "latePayment",
      "outputs": [],
      "stateMutability": "payable",
      "type": "function"
    },
    {
      "inputs": [
        {
          "internalType": "address",
          "name": "",
          "type": "address"
        },
        {
          "internalType": "uint256",
          "name": "",
          "type": "uint256"
        }
      ],
      "name": "participantCircleIds",
      "outputs": [
        {
          "internalType": "uint256",
          "name": "",
          "type": "uint256"
        }
      ],
      "stateMutability": "view",
      "type": "function"
    },
    {
      "inputs": [
        {
          "internalType": "uint256",
          "name": "circleId",
          "type": "uint256"
        }
      ],
      "name": "requestToJoin",
      "outputs": [],
      "stateMutability": "payable",
      "type": "function"
    },
    {
      "inputs": [],
      "name": "totalReserve",
      "outputs": [
        {
          "internalType": "uint256",
          "name": "",
          "type": "uint256"
        }
      ],
      "stateMutability": "view",
      "type": "function"
    },
    {
      "inputs": [
        {
          "internalType": "uint256",
          "name": "circleId",
          "type": "uint256"
        },
        {
          "internalType": "uint256",
          "name": "periodNumber",
          "type": "uint256"
        }
      ],
      "name": "triggerDistribution",
      "outputs": [],
      "stateMutability": "nonpayable",
      "type": "function"
    },
    {
      "inputs": [
        {
          "internalType": "uint256",
          "name": "circleId",
          "type": "uint256"
        }
      ],
      "name": "withdrawJoinRequestDeposit",
      "outputs": [],
      "stateMutability": "nonpayable",
      "type": "function"
    },
    {
      "stateMutability": "payable",
      "type": "receive"
    }
  ],
  "bytecode": "0x608060405260006003553480156200001657600080fd5b50604051620053303803806200533083398181016040528101906200003c9190620003e3565b80600490805190602001906200005492919062000147565b506000805b8251811015620000d4573373ffffffffffffffffffffffffffffffffffffffff1683828151811062000090576200008f62000434565b5b602002602001015173ffffffffffffffffffffffffffffffffffffffff1603620000be5760019150620000d4565b8080620000cb906200049c565b91505062000059565b50806200013f576004339080600181540180825580915050600190039060005260206000200160009091909190916101000a81548173ffffffffffffffffffffffffffffffffffffffff021916908373ffffffffffffffffffffffffffffffffffffffff1602179055505b5050620004e9565b828054828255906000526020600020908101928215620001c3579160200282015b82811115620001c25782518260006101000a81548173ffffffffffffffffffffffffffffffffffffffff021916908373ffffffffffffffffffffffffffffffffffffffff1602179055509160200191906001019062000168565b5b509050620001d29190620001d6565b5090565b5b80821115620001f1576000816000905550600101620001d7565b5090565b6000604051905090565b600080fd5b600080fd5b600080fd5b6000601f19601f8301169050919050565b7f4e487b7100000000000000000000000000000000000000000000000000000000600052604160045260246000fd5b62000259826200020e565b810181811067ffffffffffffffff821117156200027b576200027a6200021f565b5b80604052505050565b600062000290620001f5565b90506200029e82826200024e565b919050565b600067ffffffffffffffff821115620002c157620002c06200021f565b5b602082029050602081019050919050565b600080fd5b600073ffffffffffffffffffffffffffffffffffffffff82169050919050565b60006200030482620002d7565b9050919050565b6200031681620002f7565b81146200032257600080fd5b50565b60008151905062000336816200030b565b92915050565b6000620003536200034d84620002a3565b62000284565b90508083825260208201905060208402830185811115620003795762000378620002d2565b5b835b81811015620003a6578062000391888262000325565b8452602084019350506020810190506200037b565b5050509392505050565b600082601f830112620003c857620003c762000209565b5b8151620003da8482602086016200033c565b91505092915050565b600060208284031215620003fc57620003fb620001ff565b5b600082015167ffffffffffffffff8111156200041d576200041c62000204565b5b6200042b84828501620003b0565b91505092915050565b7f4e487b7100000000000000000000000000000000000000000000000000000000600052603260045260246000fd5b7f4e487b7100000000000000000000000000000000000000000000000000000000600052601160045260246000fd5b6000819050919050565b6000620004a98262000492565b91507fffffffffffffffffffffffffffffffffffffffffffffffffffffffffffffffff8203620004de57620004dd62000463565b5b600182019050919050565b614e3780620004f96000396000f3fe60806040526004361061014f5760003560e01c806384022767116100b6578063bc5e0f301161006f578063bc5e0f3014610520578063c1cbbca714610566578063cf0b111714610582578063f2f12e7f146105ad578063f3d55e37146105ea578063f40fb2541461061357610156565b806384022767146103fb578063893bebf5146104175780638d1cb1ed146104545780638ff388c714610491578063959d05e0146104ba5780639c83193e146104f757610156565b80634c68df67116101085780634c68df67146102aa5780635a30564a146102d557806364dddd95146103125780636cd5bf8f1461034f5780636d93b8dc1461039557806382eea99d146103be57610156565b806309d108b81461015b5780630d32ed971461019857806314bfd6d0146101b45780631b18f732146101f15780633af3c06f146102305780633bde1b7f1461026d57610156565b3661015657005b600080fd5b34801561016757600080fd5b50610182600480360381019061017d91906136ee565b610650565b60405161018f9190613794565b60405180910390f35b6101b260048036038101906101ad91906137af565b610888565b005b3480156101c057600080fd5b506101db60048036038101906101d691906137af565b610c92565b6040516101e8919061381d565b60405180910390f35b3480156101fd57600080fd5b5061021860048036038101906102139190613864565b610cd1565b60405161022793929190613891565b60405180910390f35b34801561023c57600080fd5b50610257600480360381019061025291906137af565b610f7a565b6040516102649190613998565b60405180910390f35b34801561027957600080fd5b50610294600480360381019061028f91906139ba565b61101e565b6040516102a19190613a15565b60405180910390f35b3480156102b657600080fd5b506102bf6110e6565b6040516102cc9190613794565b60405180910390f35b3480156102e157600080fd5b506102fc60048036038101906102f791906139ba565b6110ec565b6040516103099190613794565b60405180910390f35b34801561031e57600080fd5b50610339600480360381019061033491906139ba565b61114f565b6040516103469190613794565b60405180910390f35b34801561035b57600080fd5b50610376600480360381019061037191906137af565b611221565b60405161038c9a99989796959493929190613b26565b60405180910390f35b3480156103a157600080fd5b506103bc60048036038101906103b791906137af565b611334565b005b3480156103ca57600080fd5b506103e560048036038101906103e09190613864565b611505565b6040516103f29190613c87565b60405180910390f35b610415600480360381019061041091906137af565b61159b565b005b34801561042357600080fd5b5061043e600480360381019061043991906137af565b6118b3565b60405161044b9190613d67565b60405180910390f35b34801561046057600080fd5b5061047b600480360381019061047691906139ba565b6119e9565b6040516104889190613794565b60405180910390f35b34801561049d57600080fd5b506104b860048036038101906104b391906139ba565b611ad4565b005b3480156104c657600080fd5b506104e160048036038101906104dc9190613d89565b611d29565b6040516104ee9190613794565b60405180910390f35b34801561050357600080fd5b5061051e60048036038101906105199190613dc9565b611d5a565b005b34801561052c57600080fd5b50610547600480360381019061054291906137af565b611de0565b60405161055d9a99989796959493929190613b26565b60405180910390f35b610580600480360381019061057b91906137af565b611ec9565b005b34801561058e57600080fd5b506105976121d7565b6040516105a49190613794565b60405180910390f35b3480156105b957600080fd5b506105d460048036038101906105cf91906137af565b6121dd565b6040516105e19190613998565b60405180910390f35b3480156105f657600080fd5b50610611600480360381019061060c91906137af565b612281565b005b34801561061f57600080fd5b5061063a600480360381019061063591906137af565b61269e565b6040516106479190613998565b60405180910390f35b600061065b33612742565b61069a576040517f08c379a000000000000000000000000000000000000000000000000000000000815260040161069190613e55565b60405180910390fd5b600060026000600354815260200190815260200160002090506003548160000181905550600360008154809291906106d190613ea4565b9190505550868160010190816106e791906140f8565b5060008160070181905550858160020181905550848160050181905550838160060181905550828160030160006101000a81548160ff0219169083600381111561073457610733613aaf565b5b02179055506000600381111561074d5761074c613aaf565b5b8360038111156107605761075f613aaf565b5b036107755761012c8160040181905550610829565b6001600381111561078957610788613aaf565b5b83600381111561079c5761079b613aaf565b5b036107b157610e108160040181905550610828565b600260038111156107c5576107c4613aaf565b5b8360038111156107d8576107d7613aaf565b5b036107ee57620151808160040181905550610827565b60038081111561080157610800613aaf565b5b83600381111561081457610813613aaf565b5b036108265762093a8081600401819055505b5b5b5b600160035461083891906141ca565b7f427ba84879a0bc95ecf853fc886e645a87e1e6d6aeafb3980674038a36805fff883389878a8a604051610871969594939291906141fe565b60405180910390a260035491505095945050505050565b60006002600083815260200190815260200160002090506108a9823361101e565b6108e8576040517f08c379a00000000000000000000000000000000000000000000000000000000081526004016108df906142b2565b60405180910390fd5b600081600c0160003373ffffffffffffffffffffffffffffffffffffffff1673ffffffffffffffffffffffffffffffffffffffff168152602001908152602001600020546001836007015461093d91906141ca565b61094791906141ca565b826002015461095691906142d2565b90506000612710607d84600601548461096f91906142d2565b61097991906142d2565b6109839190614343565b9050600081836109939190614374565b90508034146109d7576040517f08c379a00000000000000000000000000000000000000000000000000000000081526004016109ce9061441a565b60405180910390fd5b600184600701546109e891906141ca565b84600c0160003373ffffffffffffffffffffffffffffffffffffffff1673ffffffffffffffffffffffffffffffffffffffff16815260200190815260200160002081905550610a3785336127f0565b610aa15783600d01339080600181540180825580915050600190039060005260206000200160009091909190916101000a81548173ffffffffffffffffffffffffffffffffffffffff021916908373ffffffffffffffffffffffffffffffffffffffff1602179055505b60005b84600e0180549050811015610c39573373ffffffffffffffffffffffffffffffffffffffff1685600e018281548110610ae057610adf61443a565b5b9060005260206000200160009054906101000a900473ffffffffffffffffffffffffffffffffffffffff1673ffffffffffffffffffffffffffffffffffffffff1603610c265784600e01600186600e0180549050610b3e91906141ca565b81548110610b4f57610b4e61443a565b5b9060005260206000200160009054906101000a900473ffffffffffffffffffffffffffffffffffffffff1685600e018281548110610b9057610b8f61443a565b5b9060005260206000200160006101000a81548173ffffffffffffffffffffffffffffffffffffffff021916908373ffffffffffffffffffffffffffffffffffffffff16021790555084600e01805480610bec57610beb614469565b5b6001900381819060005260206000200160006101000a81549073ffffffffffffffffffffffffffffffffffffffff02191690559055610c39565b8080610c3190613ea4565b915050610aa4565b503373ffffffffffffffffffffffffffffffffffffffff16857fdc5a9bb749d41756a10f5a4ecc46da77707dd47785b3ddbf83a5e4953e1af46b8585604051610c83929190614498565b60405180910390a35050505050565b60048181548110610ca257600080fd5b906000526020600020016000915054906101000a900473ffffffffffffffffffffffffffffffffffffffff1681565b6000806000806000808673ffffffffffffffffffffffffffffffffffffffff1673ffffffffffffffffffffffffffffffffffffffff168152602001908152602001600020805480602002602001604051908101604052809291908181526020018280548015610d5f57602002820191906000526020600020905b815481526020019060010190808311610d4b575b505050505090506000806000805b8451811015610f6557600060026000878481518110610d8f57610d8e61443a565b5b602002602001015181526020019081526020016000209050806005015481600701541115610f51578480610dc290613ea4565b955050600081600501548260020154610ddb91906142d2565b90506000805b83600d0180549050811015610e7f578c73ffffffffffffffffffffffffffffffffffffffff1684600d018281548110610e1d57610e1c61443a565b5b9060005260206000200160009054906101000a900473ffffffffffffffffffffffffffffffffffffffff1673ffffffffffffffffffffffffffffffffffffffff1603610e6c5760019150610e7f565b8080610e7790613ea4565b915050610de1565b506000805b84600e0180549050811015610f22578d73ffffffffffffffffffffffffffffffffffffffff1685600e018281548110610ec057610ebf61443a565b5b9060005260206000200160009054906101000a900473ffffffffffffffffffffffffffffffffffffffff1673ffffffffffffffffffffffffffffffffffffffff1603610f0f5760019150610f22565b8080610f1a90613ea4565b915050610e84565b508115610f38578287610f359190614374565b96505b8015610f4d578286610f4a9190614374565b95505b5050505b508080610f5d90613ea4565b915050610d6d565b50828282965096509650505050509193909250565b606060026000838152602001908152602001600020600e0180548060200260200160405190810160405280929190818152602001828054801561101257602002820191906000526020600020905b8160009054906101000a900473ffffffffffffffffffffffffffffffffffffffff1673ffffffffffffffffffffffffffffffffffffffff1681526020019060010190808311610fc8575b50505050509050919050565b60008060026000858152602001908152602001600020905060005b81600e01805490508110156110d9578373ffffffffffffffffffffffffffffffffffffffff1682600e0182815481106110755761107461443a565b5b9060005260206000200160009054906101000a900473ffffffffffffffffffffffffffffffffffffffff1673ffffffffffffffffffffffffffffffffffffffff16036110c6576001925050506110e0565b80806110d190613ea4565b915050611039565b5060009150505b92915050565b60015481565b60008060026000858152602001908152602001600020905080600c0160008473ffffffffffffffffffffffffffffffffffffffff1673ffffffffffffffffffffffffffffffffffffffff1681526020019081526020016000205491505092915050565b600080600260008581526020019081526020016000209050600081600c0160008573ffffffffffffffffffffffffffffffffffffffff1673ffffffffffffffffffffffffffffffffffffffff16815260200190815260200160002054600183600701546111bc91906141ca565b6111c691906141ca565b82600201546111d591906142d2565b90506000612710607d8460060154846111ee91906142d2565b6111f891906142d2565b6112029190614343565b9050600081836112129190614374565b90508094505050505092915050565b600060606000806000806000806000806000600260008d8152602001908152602001600020905080600001548160010182600201548360030160009054906101000a900460ff1684600401548560050154866006015487600701548860080154896009015488805461129290613f1b565b80601f01602080910402602001604051908101604052809291908181526020018280546112be90613f1b565b801561130b5780601f106112e05761010080835404028352916020019161130b565b820191906000526020600020905b8154815290600101906020018083116112ee57829003601f168201915b505050505098509a509a509a509a509a509a509a509a509a509a50509193959799509193959799565b600060026000838152602001908152602001600020905080600a0160003373ffffffffffffffffffffffffffffffffffffffff1673ffffffffffffffffffffffffffffffffffffffff16815260200190815260200160002060009054906101000a900460ff166113d9576040517f08c379a00000000000000000000000000000000000000000000000000000000081526004016113d090614533565b60405180910390fd5b6113e333836128b0565b611422576040517f08c379a00000000000000000000000000000000000000000000000000000000081526004016114199061459f565b60405180910390fd5b61142c8233612920565b6114363383612b2f565b6000606482600601546114499190614343565b60016114559190614374565b826002015461146491906142d2565b90503373ffffffffffffffffffffffffffffffffffffffff166108fc829081150290604051600060405180830381858888f193505050501580156114ac573d6000803e3d6000fd5b503373ffffffffffffffffffffffffffffffffffffffff16837fd6730b89afbf8b7c8dab710f40688d10b9c6a06bf1fba47a0bb0179ebaf753e684600201546040516114f89190613794565b60405180910390a3505050565b60606000808373ffffffffffffffffffffffffffffffffffffffff1673ffffffffffffffffffffffffffffffffffffffff16815260200190815260200160002080548060200260200160405190810160405280929190818152602001828054801561158f57602002820191906000526020600020905b81548152602001906001019080831161157b575b50505050509050919050565b60006002600083815260200190815260200160002090506115bc3383612c38565b156115fc576040517f08c379a00000000000000000000000000000000000000000000000000000000081526004016115f39061460b565b60405180910390fd5b61160533612742565b15611645576040517f08c379a000000000000000000000000000000000000000000000000000000000815260040161163c90614677565b60405180910390fd5b80600a0160003373ffffffffffffffffffffffffffffffffffffffff1673ffffffffffffffffffffffffffffffffffffffff16815260200190815260200160002060009054906101000a900460ff16156116d4576040517f08c379a00000000000000000000000000000000000000000000000000000000081526004016116cb906146e3565b60405180910390fd5b60006064826006015460646116e99190614374565b83600201546116f891906142d2565b6117029190614343565b9050803414611746576040517f08c379a000000000000000000000000000000000000000000000000000000000815260040161173d9061474f565b60405180910390fd5b81600b01339080600181540180825580915050600190039060005260206000200160009091909190916101000a81548173ffffffffffffffffffffffffffffffffffffffff021916908373ffffffffffffffffffffffffffffffffffffffff160217905550600182600a0160003373ffffffffffffffffffffffffffffffffffffffff1673ffffffffffffffffffffffffffffffffffffffff16815260200190815260200160002060006101000a81548160ff0219169083151502179055506000803373ffffffffffffffffffffffffffffffffffffffff1673ffffffffffffffffffffffffffffffffffffffff1681526020019081526020016000208390806001815401808255809150506001900390600052602060002001600090919091909150553373ffffffffffffffffffffffffffffffffffffffff16837f6d296459908f12096a8376b2f0480a985cc7b2ea94906df1ea8b72dda0f73ff560405160405180910390a3505050565b606060006002600084815260200190815260200160002090506000600182600701546118df91906141ca565b67ffffffffffffffff8111156118f8576118f7613568565b5b6040519080825280602002602001820160405280156119265781602001602082028036833780820191505090505b5090506000600190505b82600701548110156119de5782600f01600082815260200190815260200160002060009054906101000a900473ffffffffffffffffffffffffffffffffffffffff168260018361198091906141ca565b815181106119915761199061443a565b5b602002602001019073ffffffffffffffffffffffffffffffffffffffff16908173ffffffffffffffffffffffffffffffffffffffff168152505080806119d690613ea4565b915050611930565b508092505050919050565b600080600260008581526020019081526020016000209050611a0b848461101e565b611a19576000915050611ace565b6000816002015482600c0160008673ffffffffffffffffffffffffffffffffffffffff1673ffffffffffffffffffffffffffffffffffffffff16815260200190815260200160002054611a6c91906142d2565b82600501548360020154611a8091906142d2565b611a8a91906141ca565b905060006064607d84600601548560020154611aa691906142d2565b611ab091906142d2565b611aba9190614343565b90508082611ac89190614374565b93505050505b92915050565b611add33612742565b611b1c576040517f08c379a0000000000000000000000000000000000000000000000000000000008152600401611b1390613e55565b60405180910390fd5b6000600260008481526020019081526020016000209050806005015481600d018054905010611b80576040517f08c379a0000000000000000000000000000000000000000000000000000000008152600401611b77906147e1565b60405180910390fd5b80600a0160008373ffffffffffffffffffffffffffffffffffffffff1673ffffffffffffffffffffffffffffffffffffffff16815260200190815260200160002060009054906101000a900460ff16611c0e576040517f08c379a0000000000000000000000000000000000000000000000000000000008152600401611c0590614533565b60405180910390fd5b80600d01829080600181540180825580915050600190039060005260206000200160009091909190916101000a81548173ffffffffffffffffffffffffffffffffffffffff021916908373ffffffffffffffffffffffffffffffffffffffff160217905550611c7d8383612920565b600181600c0160008473ffffffffffffffffffffffffffffffffffffffff1673ffffffffffffffffffffffffffffffffffffffff16815260200190815260200160002081905550806005015481600d018054905003611ce057611cdf83612d22565b5b8173ffffffffffffffffffffffffffffffffffffffff16837f7564061c81b90fe922413731e777902967c9b7bb104d0d0dc5b1ffc65d4b769460405160405180910390a3505050565b60006020528160005260406000208181548110611d4557600080fd5b90600052602060002001600091509150505481565b6000611d663384612c38565b8015611d795750611d7733846128b0565b155b90506000611d8633612742565b90508180611d915750805b611dd0576040517f08c379a0000000000000000000000000000000000000000000000000000000008152600401611dc79061484d565b60405180910390fd5b611dda8484612e86565b50505050565b6002602052806000526040600020600091509050806000015490806001018054611e0990613f1b565b80601f0160208091040260200160405190810160405280929190818152602001828054611e3590613f1b565b8015611e825780601f10611e5757610100808354040283529160200191611e82565b820191906000526020600020905b815481529060010190602001808311611e6557829003601f168201915b5050505050908060020154908060030160009054906101000a900460ff1690806004015490806005015490806006015490806007015490806008015490806009015490508a565b80611ed43382612c38565b611f13576040517f08c379a0000000000000000000000000000000000000000000000000000000008152600401611f0a906148b9565b60405180910390fd5b611f1d33826128b0565b15611f5d576040517f08c379a0000000000000000000000000000000000000000000000000000000008152600401611f5490614925565b60405180910390fd5b60006002600084815260200190815260200160002090508060080154421115611fbb576040517f08c379a0000000000000000000000000000000000000000000000000000000008152600401611fb290614991565b60405180910390fd5b806005015481600c0160003373ffffffffffffffffffffffffffffffffffffffff1673ffffffffffffffffffffffffffffffffffffffff1681526020019081526020016000205410612042576040517f08c379a0000000000000000000000000000000000000000000000000000000008152600401612039906149fd565b60405180910390fd5b60006064826006015460646120579190614374565b836002015461206691906142d2565b6120709190614343565b90508034146120b4576040517f08c379a00000000000000000000000000000000000000000000000000000000081526004016120ab90614a69565b60405180910390fd5b81600c0160003373ffffffffffffffffffffffffffffffffffffffff1673ffffffffffffffffffffffffffffffffffffffff168152602001908152602001600020600081548092919061210690613ea4565b919050555060648260060154836002015461212191906142d2565b61212b9190614343565b6001600082825461213c9190614374565b925050819055503373ffffffffffffffffffffffffffffffffffffffff16847fdcfa71ee125a676f843733d9d39dce2c918ecf9e92f96db4f24bdb5244ed68a0846002015460648660060154876002015461219791906142d2565b6121a19190614343565b6040516121af929190614498565b60405180910390a38160090160008154809291906121cc90613ea4565b919050555050505050565b60035481565b606060026000838152602001908152602001600020600b0180548060200260200160405190810160405280929190818152602001828054801561227557602002820191906000526020600020905b8160009054906101000a900473ffffffffffffffffffffffffffffffffffffffff1673ffffffffffffffffffffffffffffffffffffffff168152602001906001019080831161222b575b50505050509050919050565b600060026000838152602001908152602001600020905080600801544210156122df576040517f08c379a00000000000000000000000000000000000000000000000000000000081526004016122d690614ad5565b60405180910390fd5b60005b81600d01805490508110156124b357600082600d0182815481106123095761230861443a565b5b9060005260206000200160009054906101000a900473ffffffffffffffffffffffffffffffffffffffff169050826007015483600c0160008373ffffffffffffffffffffffffffffffffffffffff1673ffffffffffffffffffffffffffffffffffffffff16815260200190815260200160002054101561249f5782600e01819080600181540180825580915050600190039060005260206000200160009091909190916101000a81548173ffffffffffffffffffffffffffffffffffffffff021916908373ffffffffffffffffffffffffffffffffffffffff1602179055506123f28482613385565b8073ffffffffffffffffffffffffffffffffffffffff167f54fc46f503abc4bd9435842e04a91be649d4c81543adc702ddddfc662860638685856002015486600c0160008673ffffffffffffffffffffffffffffffffffffffff1673ffffffffffffffffffffffffffffffffffffffff1681526020019081526020016000205461247c91906142d2565b866007015487600201546040516124969493929190614af5565b60405180910390a25b5080806124ab90613ea4565b9150506122e2565b506000600190505b816007015481101561269957600082600f01600083815260200190815260200160002060009054906101000a900473ffffffffffffffffffffffffffffffffffffffff169050826007015483600c0160008373ffffffffffffffffffffffffffffffffffffffff1673ffffffffffffffffffffffffffffffffffffffff16815260200190815260200160002054101561268557612558848261101e565b6125c25782600e01819080600181540180825580915050600190039060005260206000200160009091909190916101000a81548173ffffffffffffffffffffffffffffffffffffffff021916908373ffffffffffffffffffffffffffffffffffffffff1602179055505b8073ffffffffffffffffffffffffffffffffffffffff167f193abbe09fc002c521989681158c0923a173f7c56ccebaa2cfd68f023fa626d88585600c0160008573ffffffffffffffffffffffffffffffffffffffff1673ffffffffffffffffffffffffffffffffffffffff1681526020019081526020016000205486600501546001886007015461265391906141ca565b88600201548960030160009054906101000a900460ff1660405161267c96959493929190614b3a565b60405180910390a25b50808061269190613ea4565b9150506124bb565b505050565b606060026000838152602001908152602001600020600d0180548060200260200160405190810160405280929190818152602001828054801561273657602002820191906000526020600020905b8160009054906101000a900473ffffffffffffffffffffffffffffffffffffffff1673ffffffffffffffffffffffffffffffffffffffff16815260200190600101908083116126ec575b50505050509050919050565b600080600090505b6004805490508110156127e5576004818154811061276b5761276a61443a565b5b9060005260206000200160009054906101000a900473ffffffffffffffffffffffffffffffffffffffff1673ffffffffffffffffffffffffffffffffffffffff168373ffffffffffffffffffffffffffffffffffffffff16036127d25760019150506127eb565b80806127dd90613ea4565b91505061274a565b50600090505b919050565b600080600260008581526020019081526020016000209050600080600190505b82600701548110156128a3578473ffffffffffffffffffffffffffffffffffffffff1683600f01600083815260200190815260200160002060009054906101000a900473ffffffffffffffffffffffffffffffffffffffff1673ffffffffffffffffffffffffffffffffffffffff160361289057600193505050506128aa565b808061289b90613ea4565b915050612810565b5080925050505b92915050565b60008060026000848152602001908152602001600020905080600a0160008573ffffffffffffffffffffffffffffffffffffffff1673ffffffffffffffffffffffffffffffffffffffff16815260200190815260200160002060009054906101000a900460ff1691505092915050565b600060026000848152602001908152602001600020905060005b81600b0180549050811015612b29578273ffffffffffffffffffffffffffffffffffffffff1682600b0182815481106129765761297561443a565b5b9060005260206000200160009054906101000a900473ffffffffffffffffffffffffffffffffffffffff1673ffffffffffffffffffffffffffffffffffffffff1603612b165781600b01600183600b01805490506129d491906141ca565b815481106129e5576129e461443a565b5b9060005260206000200160009054906101000a900473ffffffffffffffffffffffffffffffffffffffff1682600b018281548110612a2657612a2561443a565b5b9060005260206000200160006101000a81548173ffffffffffffffffffffffffffffffffffffffff021916908373ffffffffffffffffffffffffffffffffffffffff16021790555081600b01805480612a8257612a81614469565b5b6001900381819060005260206000200160006101000a81549073ffffffffffffffffffffffffffffffffffffffff02191690559055600082600a0160008573ffffffffffffffffffffffffffffffffffffffff1673ffffffffffffffffffffffffffffffffffffffff16815260200190815260200160002060006101000a81548160ff021916908315150217905550612b29565b8080612b2190613ea4565b91505061293a565b50505050565b60008060008473ffffffffffffffffffffffffffffffffffffffff1673ffffffffffffffffffffffffffffffffffffffff168152602001908152602001600020905060005b8180549050811015612c325782828281548110612b9457612b9361443a565b5b906000526020600020015403612c1f578160018380549050612bb691906141ca565b81548110612bc757612bc661443a565b5b9060005260206000200154828281548110612be557612be461443a565b5b906000526020600020018190555081805480612c0457612c03614469565b5b60019003818190600052602060002001600090559055612c32565b8080612c2a90613ea4565b915050612b74565b50505050565b6000806000808573ffffffffffffffffffffffffffffffffffffffff1673ffffffffffffffffffffffffffffffffffffffff168152602001908152602001600020805480602002602001604051908101604052809291908181526020018280548015612cc357602002820191906000526020600020905b815481526020019060010190808311612caf575b5050505050905060005b8151811015612d155783828281518110612cea57612ce961443a565b5b602002602001015103612d0257600192505050612d1c565b8080612d0d90613ea4565b915050612ccd565b5060009150505b92915050565b612d2b33612742565b612d6a576040517f08c379a0000000000000000000000000000000000000000000000000000000008152600401612d6190613e55565b60405180910390fd5b600060026000838152602001908152602001600020905060018160070181905550806004015442612d9b9190614374565b81600801819055505b600081600b01805490501115612e5557600081600b01600081548110612dcd57612dcc61443a565b5b9060005260206000200160009054906101000a900473ffffffffffffffffffffffffffffffffffffffff1690508073ffffffffffffffffffffffffffffffffffffffff166108fc83600201549081150290604051600060405180830381858888f19350505050158015612e44573d6000803e3d6000fd5b50612e4f8382612920565b50612da4565b817f345ebd24093ee29c5eb284413921ab8149695111fe43e9ddeccdb20a354a2ff460405160405180910390a25050565b60006002600084815260200190815260200160002090506002600084815260200190815260200160002060080154421015612ef6576040517f08c379a0000000000000000000000000000000000000000000000000000000008152600401612eed90614ad5565b60405180910390fd5b600081600d018054905011612f40576040517f08c379a0000000000000000000000000000000000000000000000000000000008152600401612f3790614be7565b60405180910390fd5b600073ffffffffffffffffffffffffffffffffffffffff1681600f01600084815260200190815260200160002060009054906101000a900473ffffffffffffffffffffffffffffffffffffffff1673ffffffffffffffffffffffffffffffffffffffff1614612fe4576040517f08c379a0000000000000000000000000000000000000000000000000000000008152600401612fdb90614c79565b60405180910390fd5b612fed83612281565b600081600d0180549050444260405160200161300a929190614cba565b6040516020818303038152906040528051906020012060001c61302d9190614ce6565b9050600082600d0182815481106130475761304661443a565b5b9060005260206000200160009054906101000a900473ffffffffffffffffffffffffffffffffffffffff16905082600d01600184600d018054905061308c91906141ca565b8154811061309d5761309c61443a565b5b9060005260206000200160009054906101000a900473ffffffffffffffffffffffffffffffffffffffff1683600d0183815481106130de576130dd61443a565b5b9060005260206000200160006101000a81548173ffffffffffffffffffffffffffffffffffffffff021916908373ffffffffffffffffffffffffffffffffffffffff16021790555082600d0180548061313a57613139614469565b5b6001900381819060005260206000200160006101000a81549073ffffffffffffffffffffffffffffffffffffffff0219169055905560008360050154846002015461318591906142d2565b9050804710156131ca576040517f08c379a00000000000000000000000000000000000000000000000000000000081526004016131c190614d63565b60405180910390fd5b8173ffffffffffffffffffffffffffffffffffffffff166108fc829081150290604051600060405180830381858888f19350505050158015613210573d6000803e3d6000fd5b508184600f0160008660070154815260200190815260200160002060006101000a81548173ffffffffffffffffffffffffffffffffffffffff021916908373ffffffffffffffffffffffffffffffffffffffff1602179055508360070154867fac72bfb46af7ca563ad9b5f5a440fa53dcc232201555ca0c60da3cf41bfa457084846040516132a0929190614dd8565b60405180910390a38360070160008154809291906132bd90613ea4565b91905055506000846009018190555042846004015485600801546132e19190614374565b1015613304578360040154426132f79190614374565b8460080181905550613324565b836004015484600801600082825461331c9190614374565b925050819055505b83600501548460070154111561337d57857f48d7e6de3721ec39ccc92fad782f5a9af6c9130cb775f09ec1b55f0b4bdb7dba85600201548660050154876006015460405161337493929190613891565b60405180910390a25b505050505050565b6000600260008481526020019081526020016000209050600081600d0180549050905060005b81811015613532578373ffffffffffffffffffffffffffffffffffffffff1683600d0182815481106133e0576133df61443a565b5b9060005260206000200160009054906101000a900473ffffffffffffffffffffffffffffffffffffffff1673ffffffffffffffffffffffffffffffffffffffff160361351f5782600d0160018361343791906141ca565b815481106134485761344761443a565b5b9060005260206000200160009054906101000a900473ffffffffffffffffffffffffffffffffffffffff1683600d0182815481106134895761348861443a565b5b9060005260206000200160006101000a81548173ffffffffffffffffffffffffffffffffffffffff021916908373ffffffffffffffffffffffffffffffffffffffff16021790555082600d018054806134e5576134e4614469565b5b6001900381819060005260206000200160006101000a81549073ffffffffffffffffffffffffffffffffffffffff02191690559055613532565b808061352a90613ea4565b9150506133ab565b5050505050565b6000604051905090565b600080fd5b600080fd5b600080fd5b600080fd5b6000601f19601f8301169050919050565b7f4e487b7100000000000000000000000000000000000000000000000000000000600052604160045260246000fd5b6135a082613557565b810181811067ffffffffffffffff821117156135bf576135be613568565b5b80604052505050565b60006135d2613539565b90506135de8282613597565b919050565b600067ffffffffffffffff8211156135fe576135fd613568565b5b61360782613557565b9050602081019050919050565b82818337600083830152505050565b6000613636613631846135e3565b6135c8565b90508281526020810184848401111561365257613651613552565b5b61365d848285613614565b509392505050565b600082601f83011261367a5761367961354d565b5b813561368a848260208601613623565b91505092915050565b6000819050919050565b6136a681613693565b81146136b157600080fd5b50565b6000813590506136c38161369d565b92915050565b600481106136d657600080fd5b50565b6000813590506136e8816136c9565b92915050565b600080600080600060a0868803121561370a57613709613543565b5b600086013567ffffffffffffffff81111561372857613727613548565b5b61373488828901613665565b9550506020613745888289016136b4565b9450506040613756888289016136b4565b9350506060613767888289016136b4565b9250506080613778888289016136d9565b9150509295509295909350565b61378e81613693565b82525050565b60006020820190506137a96000830184613785565b92915050565b6000602082840312156137c5576137c4613543565b5b60006137d3848285016136b4565b91505092915050565b600073ffffffffffffffffffffffffffffffffffffffff82169050919050565b6000613807826137dc565b9050919050565b613817816137fc565b82525050565b6000602082019050613832600083018461380e565b92915050565b613841816137fc565b811461384c57600080fd5b50565b60008135905061385e81613838565b92915050565b60006020828403121561387a57613879613543565b5b60006138888482850161384f565b91505092915050565b60006060820190506138a66000830186613785565b6138b36020830185613785565b6138c06040830184613785565b949350505050565b600081519050919050565b600082825260208201905092915050565b6000819050602082019050919050565b60006138ff826137dc565b9050919050565b61390f816138f4565b82525050565b60006139218383613906565b60208301905092915050565b6000602082019050919050565b6000613945826138c8565b61394f81856138d3565b935061395a836138e4565b8060005b8381101561398b5781516139728882613915565b975061397d8361392d565b92505060018101905061395e565b5085935050505092915050565b600060208201905081810360008301526139b2818461393a565b905092915050565b600080604083850312156139d1576139d0613543565b5b60006139df858286016136b4565b92505060206139f08582860161384f565b9150509250929050565b60008115159050919050565b613a0f816139fa565b82525050565b6000602082019050613a2a6000830184613a06565b92915050565b600081519050919050565b600082825260208201905092915050565b60005b83811015613a6a578082015181840152602081019050613a4f565b60008484015250505050565b6000613a8182613a30565b613a8b8185613a3b565b9350613a9b818560208601613a4c565b613aa481613557565b840191505092915050565b7f4e487b7100000000000000000000000000000000000000000000000000000000600052602160045260246000fd5b60048110613aef57613aee613aaf565b5b50565b6000819050613b0082613ade565b919050565b6000613b1082613af2565b9050919050565b613b2081613b05565b82525050565b600061014082019050613b3c600083018d613785565b8181036020830152613b4e818c613a76565b9050613b5d604083018b613785565b613b6a606083018a613b17565b613b776080830189613785565b613b8460a0830188613785565b613b9160c0830187613785565b613b9e60e0830186613785565b613bac610100830185613785565b613bba610120830184613785565b9b9a5050505050505050505050565b600081519050919050565b600082825260208201905092915050565b6000819050602082019050919050565b613bfe81613693565b82525050565b6000613c108383613bf5565b60208301905092915050565b6000602082019050919050565b6000613c3482613bc9565b613c3e8185613bd4565b9350613c4983613be5565b8060005b83811015613c7a578151613c618882613c04565b9750613c6c83613c1c565b925050600181019050613c4d565b5085935050505092915050565b60006020820190508181036000830152613ca18184613c29565b905092915050565b600081519050919050565b600082825260208201905092915050565b6000819050602082019050919050565b613cde816137fc565b82525050565b6000613cf08383613cd5565b60208301905092915050565b6000602082019050919050565b6000613d1482613ca9565b613d1e8185613cb4565b9350613d2983613cc5565b8060005b83811015613d5a578151613d418882613ce4565b9750613d4c83613cfc565b925050600181019050613d2d565b5085935050505092915050565b60006020820190508181036000830152613d818184613d09565b905092915050565b60008060408385031215613da057613d9f613543565b5b6000613dae8582860161384f565b9250506020613dbf858286016136b4565b9150509250929050565b60008060408385031215613de057613ddf613543565b5b6000613dee858286016136b4565b9250506020613dff858286016136b4565b9150509250929050565b7f4e6f7420616e2061646d696e0000000000000000000000000000000000000000600082015250565b6000613e3f600c83613a3b565b9150613e4a82613e09565b602082019050919050565b60006020820190508181036000830152613e6e81613e32565b9050919050565b7f4e487b7100000000000000000000000000000000000000000000000000000000600052601160045260246000fd5b6000613eaf82613693565b91507fffffffffffffffffffffffffffffffffffffffffffffffffffffffffffffffff8203613ee157613ee0613e75565b5b600182019050919050565b7f4e487b7100000000000000000000000000000000000000000000000000000000600052602260045260246000fd5b60006002820490506001821680613f3357607f821691505b602082108103613f4657613f45613eec565b5b50919050565b60008190508160005260206000209050919050565b60006020601f8301049050919050565b600082821b905092915050565b600060088302613fae7fffffffffffffffffffffffffffffffffffffffffffffffffffffffffffffffff82613f71565b613fb88683613f71565b95508019841693508086168417925050509392505050565b6000819050919050565b6000613ff5613ff0613feb84613693565b613fd0565b613693565b9050919050565b6000819050919050565b61400f83613fda565b61402361401b82613ffc565b848454613f7e565b825550505050565b600090565b61403861402b565b614043818484614006565b505050565b5b818110156140675761405c600082614030565b600181019050614049565b5050565b601f8211156140ac5761407d81613f4c565b61408684613f61565b81016020851015614095578190505b6140a96140a185613f61565b830182614048565b50505b505050565b600082821c905092915050565b60006140cf600019846008026140b1565b1980831691505092915050565b60006140e883836140be565b9150826002028217905092915050565b61410182613a30565b67ffffffffffffffff81111561411a57614119613568565b5b6141248254613f1b565b61412f82828561406b565b600060209050601f8311600181146141625760008415614150578287015190505b61415a85826140dc565b8655506141c2565b601f19841661417086613f4c565b60005b8281101561419857848901518255600182019150602085019450602081019050614173565b868310156141b557848901516141b1601f8916826140be565b8355505b6001600288020188555050505b505050505050565b60006141d582613693565b91506141e083613693565b92508282039050818111156141f8576141f7613e75565b5b92915050565b600060c08201905081810360008301526142188189613a76565b9050614227602083018861380e565b6142346040830187613785565b6142416060830186613b17565b61424e6080830185613785565b61425b60a0830184613785565b979650505050505050565b7f4e6f74206120646562746f720000000000000000000000000000000000000000600082015250565b600061429c600c83613a3b565b91506142a782614266565b602082019050919050565b600060208201905081810360008301526142cb8161428f565b9050919050565b60006142dd82613693565b91506142e883613693565b92508282026142f681613693565b9150828204841483151761430d5761430c613e75565b5b5092915050565b7f4e487b7100000000000000000000000000000000000000000000000000000000600052601260045260246000fd5b600061434e82613693565b915061435983613693565b92508261436957614368614314565b5b828204905092915050565b600061437f82613693565b915061438a83613693565b92508282019050808211156143a2576143a1613e75565b5b92915050565b7f416d6f756e742073656e74206973206c657373207468616e2074686520746f7460008201527f616c206475650000000000000000000000000000000000000000000000000000602082015250565b6000614404602683613a3b565b915061440f826143a8565b604082019050919050565b60006020820190508181036000830152614433816143f7565b9050919050565b7f4e487b7100000000000000000000000000000000000000000000000000000000600052603260045260246000fd5b7f4e487b7100000000000000000000000000000000000000000000000000000000600052603160045260246000fd5b60006040820190506144ad6000830185613785565b6144ba6020830184613785565b9392505050565b7f4e6f206a6f696e20726571756573742066726f6d20746869732061646472657360008201527f7300000000000000000000000000000000000000000000000000000000000000602082015250565b600061451d602183613a3b565b9150614528826144c1565b604082019050919050565b6000602082019050818103600083015261454c81614510565b9050919050565b7f4164647265737320697320616c72656164792061207061727469636970616e74600082015250565b6000614589602083613a3b565b915061459482614553565b602082019050919050565b600060208201905081810360008301526145b88161457c565b9050919050565b7f416c72656164792061207061727469636970616e740000000000000000000000600082015250565b60006145f5601583613a3b565b9150614600826145bf565b602082019050919050565b60006020820190508181036000830152614624816145e8565b9050919050565b7f41646d696e732063616e6e6f74206a6f696e20636972636c6573000000000000600082015250565b6000614661601a83613a3b565b915061466c8261462b565b602082019050919050565b6000602082019050818103600083015261469081614654565b9050919050565b7f416c72656164792072657175657374656420746f206a6f696e00000000000000600082015250565b60006146cd601983613a3b565b91506146d882614697565b602082019050919050565b600060208201905081810360008301526146fc816146c0565b9050919050565b7f496e636f7272656374206465706f73697420616d6f756e7420796f0000000000600082015250565b6000614739601b83613a3b565b915061474482614703565b602082019050919050565b600060208201905081810360008301526147688161472c565b9050919050565b7f4d6178696d756d206e756d626572206f66207061727469636970616e7473207260008201527f6561636865640000000000000000000000000000000000000000000000000000602082015250565b60006147cb602683613a3b565b91506147d68261476f565b604082019050919050565b600060208201905081810360008301526147fa816147be565b9050919050565b7f4e6f7420617574686f72697a656420746f2063616c6c00000000000000000000600082015250565b6000614837601683613a3b565b915061484282614801565b602082019050919050565b600060208201905081810360008301526148668161482a565b9050919050565b7f4e6f742061207061727469636970616e74000000000000000000000000000000600082015250565b60006148a3601183613a3b565b91506148ae8261486d565b602082019050919050565b600060208201905081810360008301526148d281614896565b9050919050565b7f5374696c6c2070656e64696e6720617070726f76616c00000000000000000000600082015250565b600061490f601683613a3b565b915061491a826148d9565b602082019050919050565b6000602082019050818103600083015261493e81614902565b9050919050565b7f5061796d656e74206475652074696d6520706173736564000000000000000000600082015250565b600061497b601783613a3b565b915061498682614945565b602082019050919050565b600060208201905081810360008301526149aa8161496e565b9050919050565b7f416c7265616479207061696420616c6c20636f6e747269627574696f6e730000600082015250565b60006149e7601e83613a3b565b91506149f2826149b1565b602082019050919050565b60006020820190508181036000830152614a16816149da565b9050919050565b7f496e636f727265637420616d6f756e742073656e740000000000000000000000600082015250565b6000614a53601583613a3b565b9150614a5e82614a1d565b602082019050919050565b60006020820190508181036000830152614a8281614a46565b9050919050565b7f43757272656e7420706572696f6420686173206e6f7420656e64656420796574600082015250565b6000614abf602083613a3b565b9150614aca82614a89565b602082019050919050565b60006020820190508181036000830152614aee81614ab2565b9050919050565b6000608082019050614b0a6000830187613785565b614b176020830186613785565b614b246040830185613785565b614b316060830184613785565b95945050505050565b600060c082019050614b4f6000830189613785565b614b5c6020830188613785565b614b696040830187613785565b614b766060830186613785565b614b836080830185613785565b614b9060a0830184613b17565b979650505050505050565b7f4e6f626f647920656c696769626c6520746f20726563656976652066756e6473600082015250565b6000614bd1602083613a3b565b9150614bdc82614b9b565b602082019050919050565b60006020820190508181036000830152614c0081614bc4565b9050919050565b7f46756e6473206861766520616c7265616479206265656e20646973747269627560008201527f74656420666f72207468697320706572696f6421000000000000000000000000602082015250565b6000614c63603483613a3b565b9150614c6e82614c07565b604082019050919050565b60006020820190508181036000830152614c9281614c56565b9050919050565b6000819050919050565b614cb4614caf82613693565b614c99565b82525050565b6000614cc68285614ca3565b602082019150614cd68284614ca3565b6020820191508190509392505050565b6000614cf182613693565b9150614cfc83613693565b925082614d0c57614d0b614314565b5b828206905092915050565b7f436f6e74726163742062616c616e636520697320696e73756666696369656e74600082015250565b6000614d4d602083613a3b565b9150614d5882614d17565b602082019050919050565b60006020820190508181036000830152614d7c81614d40565b9050919050565b6000614d9e614d99614d94846137dc565b613fd0565b6137dc565b9050919050565b6000614db082614d83565b9050919050565b6000614dc282614da5565b9050919050565b614dd281614db7565b82525050565b6000604082019050614ded6000830185614dc9565b614dfa6020830184613785565b939250505056fea2646970667358221220f141a49803d905ae00f7c1f40291bbb3c2309c3d944458a215be8bb0538293a964736f6c63430008110033",
  "linkReferences": {},
  "deployedLinkReferences": {}
}